:020000040000FA
:0400000080EF00F09D
:020004000000FA
:080008009EBAADEF00F01000FC
:10010000948EF28EF28C1F0EAF6EAB8EAB889E9AE1
:100110009D8A880E516E530E526E9590959294EC76
:1001200000F09DEC00F0FBD7000ECD6E51C0CFFF6C
:1001300052C0CEFF9E909D901200C80E506E8380DC
:10014000CD809EA0FED794EC00F08390CD809EA041
:10015000FED794EC00F05006F0E1AECF53F053B070
:1001600006D053B207D053B412D09E9A10008372B7
:100170009E9A1000CD90100E512651C0CFFF52C054
:10018000CEFF9E909D90CD80F2929E9A1000CD90D1
:10019000100E515E51C0CFFF52C0CEFF9E909D9079
:0801A000CD80F2929E9A10003E
:020000040030CA
:0100010022DC
:010003000EEE
:00000001FF
